:100000000C945D000C9485000C9485000C94850084
:100010000C9485000C9485000C9485000C9485004C
:100020000C9485000C9485000C9485000C9485003C
:100030000C9485000C9485000C9485000C9485002C
:100040000C94D8020C9485000C94A6020C948002A7
:100050000C9485000C9485000C9485000C9485000C
:100060000C9485000C94850000000008000201003B
:100070000003040700000000000000000000000072
:10008000250028002B0000000000240027002A0083
:10009000040404040404040402020202020203032E
:1000A0000303030301020408102040800102040836
:1000B0001020010204081020220311241FBECFEFDC
:1000C000D8E0DEBFCDBF11E0A0E0B1E0E8E9F9E0A3
:1000D00002C005900D92A631B107D9F721E0A6E143
:1000E000B1E001C01D92A23DB207E1F710E0CDE5FD
:1000F000D0E004C02197FE010E94C404CC35D10792
:10010000C9F70E949B030C94CA040C94000090E071
:10011000FC01EC55FF4F249180579F4FFC018491C7
:10012000882399F090E0880F991FFC01EA57FF4F50
:10013000A591B491FC01E458FF4F859194918FB73C
:10014000F894EC91E22BEC938FBF0895AF92BF929D
:10015000CF92DF92EF92FF920F931F93CF93DF9393
:100160006C017B018B01040F151FEB015E01AE18C2
:10017000BF08C017D10759F06991D601ED91FC91E4
:100180000190F081E02DC6010995892B79F7C50111
:10019000DF91CF911F910F91FF90EF90DF90CF9063
:1001A000BF90AF900895FC01538D448D252F30E012
:1001B000842F90E0821B930B541710F0CF96089574
:1001C00001970895FC01918D828D981761F0A28DA1
:1001D000AE0FBF2FB11D5D968C91928D9F5F9F7367
:1001E000928F90E008958FEF9FEF0895FC01918D1D
:1001F000828D981731F0828DE80FF11D858D90E08A
:1002000008958FEF9FEF0895FC01918D228D892F26
:1002100090E0805C9F4F821B91098F73992708950E
:1002200081E291E00E94040121E0892B09F420E0A1
:10023000822F089580E090E0892B29F00E94100120
:1002400081110C9400000895FC01A48DA80FB92F12
:10025000B11DA35ABF4F2C91848D90E001968F73EE
:100260009927848FA689B7892C93A089B1898C910D
:10027000837080648C93938D848D981306C002885C
:10028000F389E02D80818F7D80830895EF92FF9226
:100290000F931F93CF93DF93EC0181E0888F9B8DA9
:1002A0008C8D98131AC0E889F989808185FF15C063
:1002B0009FB7F894EE89FF896083E889F989808186
:1002C0008370806480839FBF81E090E0DF91CF9155
:1002D0001F910F91FF90EF900895F62E0B8D10E077
:1002E0000F5F1F4F0F731127E02E8C8D8E110CC0E6
:1002F0000FB607FCFACFE889F989808185FFF5CF31
:10030000CE010E942401F1CFEB8DEC0FFD2FF11DEA
:10031000E35AFF4FF0829FB7F8940B8FEA89FB896D
:1003200080818062CFCFCF93DF93EC01888D8823CB
:10033000B9F0AA89BB89E889F9898C9185FD03C048
:10034000808186FD0DC00FB607FCF7CF8C9185FF2D
:10035000F2CF808185FFEDCFCE010E942401E9CF4D
:10036000DF91CF91089590E0FC01E859FF4F24916F
:10037000FC01EC55FF4F3491FC01E057FF4FE49135
:10038000EE23C9F0222339F0233001F1A8F4213003
:1003900019F1223029F1F0E0EE0FFF1FE458FF4F72
:1003A000A591B4918FB7F894EC91611126C0309566
:1003B0003E233C938FBF08952730A9F02830C9F021
:1003C000243049F7809180008F7D03C080918000A8
:1003D0008F7780938000DFCF84B58F7784BDDBCFAC
:1003E00084B58F7DFBCF8091B0008F778093B00074
:1003F000D2CF8091B0008F7DF9CF3E2BDACF1F9303
:10040000CF93DF93182FEB010E948700209739F4D8
:1004100060E0812FDF91CF911F910C94B301CF3F0A
:10042000D10511F461E0F5CFE12FF0E0E859FF4F7D
:10043000E491E33031F140F4E130B1F0E230E1F049
:10044000C038D1057CF7E4CFE73029F1E83059F125
:10045000E430B1F780918000806280938000D09377
:100460008B00C0938A0004C084B5806884BDC7BD7A
:10047000DF91CF911F91089584B5806284BDC8BD7E
:10048000F7CF80918000806880938000D0938900AE
:10049000C0938800EDCF8091B00080688093B00059
:1004A000C093B300E5CF8091B00080628093B0002C
:1004B000C093B400DDCF3FB7F89480911B019091B9
:1004C0001C01A0911D01B0911E0126B5A89B05C07D
:1004D0002F3F19F00196A11DB11D3FBFBA2FA92FC3
:1004E000982F8827BC01CD01620F711D811D911DC0
:1004F00042E0660F771F881F991F4A95D1F708952C
:100500001F920F920FB60F9211242F933F934F9388
:100510005F936F937F938F939F93AF93BF93EF936B
:10052000FF9381E291E00E942401FF91EF91BF913E
:10053000AF919F918F917F916F915F914F913F917B
:100540002F910F900FBE0F901F9018951F920F9232
:100550000FB60F9211242F938F939F93EF93FF93D6
:10056000E0913101F09132018081E0913701F09109
:10057000380182FD1BC0908180913A018F5F8F739B
:1005800020913B01821741F0E0913A01F0E0EF5DEC
:10059000FE4F958F80933A01FF91EF919F918F913C
:1005A0002F910F900FBE0F901F9018958081F4CF60
:1005B0001F920F920FB60F9211242F933F938F9398
:1005C0009F93AF93BF938091170190911801A091D1
:1005D0001901B0911A013091160123E0230F2D3734
:1005E00058F50196A11DB11D2093160180931701A6
:1005F00090931801A0931901B0931A0180911B01E7
:1006000090911C01A0911D01B0911E010196A11DA8
:10061000B11D80931B0190931C01A0931D01B09309
:100620001E01BF91AF919F918F913F912F910F909C
:100630000FBE0F901F90189526E8230F0296A11D5C
:10064000B11DD2CFEF92FF920F931F93CF93DF9301
:10065000E1E2F1E01382128288EE93E0A0E0B0E0E4
:1006600084839583A683B78384E091E0918380831C
:1006700085EC90E09587848784EC90E09787868767
:1006800080EC90E0918B808B81EC90E0938B828B5F
:1006900082EC90E0958B848B86EC90E0978B868B38
:1006A000118E128E138E148EC8ECD1E089E090E08A
:1006B000998388838AE090E09B838A838BE090E033
:1006C0009D838C8388E0E82EF12CF986E88601E092
:1006D00010E01F830E8389E00E9487008A810E94B8
:1006E00087008C810E94870088850E948700CEEB5E
:1006F000D1E087E090E09983888386E090E09B8357
:100700008A8385E090E09D838C83F986E8861F8349
:100710000E8387E00E9487008A810E9487008C8177
:100720000E9487008885DF91CF911F910F91FF90E4
:10073000EF900C948700CF93DF93CDB7DEB7A197EE
:100740000FB6F894DEBF0FBECDBF789484B582603B
:1007500084BD84B5816084BD85B5826085BD85B565
:10076000816085BD80916E00816080936E001092E3
:10077000810080918100826080938100809181005E
:1007800081608093810080918000816080938000EF
:100790008091B10084608093B1008091B00081604D
:1007A0008093B00080917A00846080937A00809179
:1007B0007A00826080937A0080917A0081608093D1
:1007C0007A0080917A00806880937A001092C1004C
:1007D00089E00E9487008AE00E94870087E00E94EB
:1007E000870086E00E9487008BE00E94870085E0FA
:1007F0000E94870088E00E948700E0913101F0911B
:10080000320182E08083E0912D01F0912E0110826F
:10081000E0912F01F09130018FEC8083109239012B
:10082000E0913501F091360186E08083E09133015B
:10083000F0913401808180618083E0913301F091F7
:100840003401808188608083E0913301F09134012C
:10085000808180688083E0913301F0913401808150
:100860008F7D80839EEFC92ED12C24E3322E35E379
:10087000232E7E012EE1E20EF11CD0922001C092C7
:100880001F0119A238A22F8E82E38E8FF7010190EB
:100890000020E9F73197AF014E195F09B70181E2F6
:1008A00091E00E94A60042E050E062E171E081E246
:1008B00091E00E94A60060901F017090200161E00D
:1008C0008091D0010E94B3018091CE019091CF011F
:1008D000689E8001699E100D789E100D112417FDF1
:1008E00044C061E08091C8010E94B30160E0809142
:1008F000CA010E94B301B8018091CC010E94FF019E
:1009000061E088E00E94B3010E945B024B015C0140
:1009100084E6482E512C612C712C0E945B026819D0
:1009200079098A099B09683E734081059105A8F3FE
:1009300091E0491A51086108710828EE820E23E0FF
:10094000921EA11CB11C411451046104710429F7C9
:1009500080E090E0892B09F490CF0E941001882359
:1009600009F48BCF0E94000088CF60E08091C8011D
:100970000E94B30161E08091CA010E94B301662721
:100980007727601B710BB8CFEE0FFF1F0590F49116
:08099000E02D0994F894FFCF5B
:10099800000000004601A600D30093010401E20014
:0609A800F6000D0A00003C
:00000001FF
